:100000000C9462000C948A000C948A000C948A0070
:100010000C948A000C948A000C948A000C948A0038
:100020000C948A000C948A000C948A000C948A0028
:100030000C948A000C948A000C948A000C948A0018
:100040000C9431030C948A000C94FF020C94D90296
:100050000C948A000C948A000C948A000C948A00F8
:100060000C948A000C948A000000000023002600F3
:10007000290000000000240027002A0000000000E2
:10008000250028002B0004040404040404040202D4
:100090000202020203030303030301020408102007
:1000A0004080010204081020010204081020000012
:1000B0000008000201000003040700000000000027
:1000C0000000C00311241FBECFEFD8E0DEBFCDBFBC
:1000D00011E0A0E0B1E0E6E6FAE002C005900D9282
:1000E000A231B107D9F721E0A2E1B1E001C01D9230
:1000F000A03CB207E1F710E0C2E6D0E004C02197CF
:10010000FE010E942B05C136D107C9F70E940904E0
:100110000C9431050C940000AF92BF92CF92DF9205
:10012000EF92FF920F931F93CF93DF936C017B01AC
:100130008B01040F151FEB015E01AE18BF08C0173D
:10014000D10759F06991D601ED91FC910190F081B0
:10015000E02DC6010995892B79F7C501DF91CF9173
:100160001F910F91FF90EF90DF90CF90BF90AF90D5
:100170000895FC01538D448D252F30E0842F90E0AD
:10018000821B930B541710F0CF9608950197089592
:10019000FC01918D828D981761F0A28DAE0FBF2F5B
:1001A000B11D5D968C91928D9F5F9F73928F90E0B1
:1001B00008958FEF9FEF0895FC01918D828D981720
:1001C00031F0828DE80FF11D858D90E008958FEF5D
:1001D0009FEF0895FC01918D228D892F90E0805C26
:1001E0009F4F821B91098F73992708958FE191E0AA
:1001F0000E94EA0021E0892B09F420E0822F089573
:1002000080E090E0892B29F00E94F60081110C9487
:1002100000000895FC01A48DA80FB92FB11DA35AA9
:10022000BF4F2C91848D90E001968F739927848F16
:10023000A689B7892C93A089B1898C918370806439
:100240008C93938D848D981306C00288F389E02DDA
:1002500080818F7D80830895EF92FF920F931F938B
:10026000CF93DF93EC0181E0888F9B8D8C8D981369
:100270001AC0E889F989808185FF15C09FB7F89475
:10028000EE89FF896083E889F989808183708064C1
:1002900080839FBF81E090E0DF91CF911F910F910C
:1002A000FF90EF900895F62E0B8D10E00F5F1F4F1B
:1002B0000F731127E02E8C8D8E110CC00FB607FC2A
:1002C000FACFE889F989808185FFF5CFCE010E94B8
:1002D0000A01F1CFEB8DEC0FFD2FF11DE35AFF4F1B
:1002E000F0829FB7F8940B8FEA89FB898081806246
:1002F000CFCFCF93DF93EC01888D8823B9F0AA8903
:10030000BB89E889F9898C9185FD03C0808186FDD0
:100310000DC00FB607FCF7CF8C9185FFF2CF80811F
:1003200085FFEDCFCE010E940A01E9CFDF91CF9189
:10033000089590E0FC01E255FF4F2491FC01E65640
:10034000FF4F3491FC01EA57FF4FE491EE23C9F0CF
:10035000222339F0233001F1A8F4213019F12230A1
:1003600029F1F0E0EE0FFF1FE458FF4FA591B49183
:100370008FB7F894EC91611126C030953E233C93E1
:100380008FBF08952730A9F02830C9F0243049F7ED
:10039000809180008F7D03C0809180008F77809353
:1003A0008000DFCF84B58F7784BDDBCF84B58F7DB0
:1003B000FBCF8091B0008F778093B000D2CF809137
:1003C000B0008F7DF9CF3E2BDACFCF93DF9390E053
:1003D000FC01E656FF4F24918A579F4FFC01849100
:1003E0008823D1F090E0880F991FFC01EE58FF4F51
:1003F000A591B491FC01E458FF4FC591D4916111CE
:100400000EC09FB7F8948C91E22FE0958E238C93C9
:100410002881E223E8839FBFDF91CF9108958FB7B2
:10042000F894EC91E22BEC938FBFF6CF3FB7F894A2
:100430008091170190911801A0911901B0911A01B2
:1004400026B5A89B05C02F3F19F00196A11DB11D2F
:100450003FBFBA2FA92F982F8827BC01CD01620F6B
:10046000711D811D911D42E0660F771F881F991F26
:100470004A95D1F708958F929F92AF92BF92CF92F3
:10048000DF92EF92FF924B015C010E9416026B011A
:100490007C010E9416026C197D098E099F09683E35
:1004A000734081059105A8F321E0821A9108A10803
:1004B000B10888EEC80E83E0D81EE11CF11C81143F
:1004C0009104A104B10429F7FF90EF90DF90CF9041
:1004D000BF90AF909F908F9008950F931F93CF93ED
:1004E000C82F8B0161E00E9499012BE0209FC00181
:1004F000219F900D11248230910538F0880F991FAB
:10050000880F991F05970197F1F760E08C2F0E94E3
:10051000990162E370E080E090E0CF911F910F912C
:100520000C943B020F931F93CF93DF93EC0160E099
:1005300088810E94990183E090E00197F1F761E0E2
:1005400088810E94990183E290E00197F1F760E0D1
:1005500088810E949901898190E0FC01E656FF4F55
:100560006491FC01EA57FF4FE491F0E0EE0FFF1FAA
:10057000E859FF4F8591949100E412E42FE030E0B8
:10058000462F0E947B03611571058105910529F0B5
:100590006F5F7F4F8F4F9F4F9F702BE330E040E0A6
:1005A00050E00E940905C901DF91CF911F910F9181
:1005B00008951F920F920FB60F9211242F933F931D
:1005C0004F935F936F937F938F939F93AF93BF935B
:1005D000EF93FF938FE191E00E940A01FF91EF9169
:1005E000BF91AF919F918F917F916F915F914F914B
:1005F0003F912F910F900FBE0F901F9018951F9253
:100600000F920FB60F9211242F938F939F93EF9316
:10061000FF93E0912F01F09130018081E09135014D
:10062000F091360182FD1BC09081809138018F5F6F
:100630008F7320913901821741F0E0913801F0E089
:10064000E15EFE4F958F80933801FF91EF919F916E
:100650008F912F910F900FBE0F901F901895808152
:10066000F4CF1F920F920FB60F9211242F933F9346
:100670008F939F93AF93BF93809113019091140137
:10068000A0911501B09116013091120123E0230FC2
:100690002D3758F50196A11DB11D209312018093AD
:1006A000130190931401A0931501B093160180914A
:1006B000170190911801A0911901B0911A010196AA
:1006C000A11DB11D8093170190931801A0931901EA
:1006D000B0931A01BF91AF919F918F913F912F914C
:1006E0000F900FBE0F901F90189526E8230F0296CB
:1006F000A11DB11DD2CFCF92DF92EF92FF920F9347
:100700001F93E82FF92F05C0015011092109310964
:1007100061F1908196239417B9F305C00150110936
:100720002109310911F1908196239413F7CFC12C3F
:10073000D12CE12CF12C0AC08FEFC81AD80AE80A94
:10074000F80A0C151D052E053F0579F080818623DA
:10075000841791F36C2D7D2D8E2D9F2D1F910F9160
:10076000FF90EF90DF90CF90089560E070E080E020
:1007700090E01F910F91FF90EF90DF90CF90089540
:10078000EFE1F1E01382128288EE93E0A0E0B0E0A6
:1007900084839583A683B78384E091E091838083EB
:1007A00085EC90E09587848784EC90E09787868736
:1007B00080EC90E0918B808B81EC90E0938B828B2E
:1007C00082EC90E0958B848B86EC90E0978B868B07
:1007D000118E128E138E148E61E089E00E94E50165
:1007E00060E08AE00E94E501EEEBF1E089E08083C1
:1007F0008AE0818361E08BE00E94E50160E08CE0AB
:100800000E94E501ECEBF1E08BE080838CE08183DA
:100810000895789484B5826084BD84B5816084BD78
:1008200085B5826085BD85B5816085BD80916E008E
:10083000816080936E0010928100809181008260BF
:1008400080938100809181008160809381008091FC
:1008500080008160809380008091B10084608093EB
:10086000B1008091B00081608093B00080917A00E7
:10087000846080937A0080917A00826080937A000D
:1008800080917A00816080937A0080917A008068FC
:1008900080937A001092C100E0912F01F091300115
:1008A00082E08083E0912B01F0912C011082E09195
:1008B0002D01F0912E018FEC808310923701E09191
:1008C0003301F091340186E08083E0913101F091B1
:1008D0003201808180618083E0913101F0913201A9
:1008E000808188608083E0913101F09132018081C4
:1008F00080688083E0913101F091320180818F7DA9
:10090000808361E083E00E94E50161E085E00E9470
:10091000E50170E060E083E090E00E946D0270E02D
:1009200060E085E090E00E946D0280E0E82E80E0CB
:10093000F82E8EEB91E00E94920290931E0180931C
:100940001D018CEB91E00E949202EC0190931C013E
:1009500080931B0100911D0110911E01B80183E0DD
:1009600090E00E946D02BE0185E090E00E946D0261
:100970006FE070E080E090E00E943B0207391105D3
:1009800094F46FEF73E083E090E00E946D0264ECFA
:1009900079E080E090E00E943B0270E060E083E05C
:1009A00090E00E946D02CA3FD10524F170E060E042
:1009B00085E090E00E946D026CEB72E080E090E0D8
:1009C0000E943B026FEF73E085E090E00E946D02B1
:1009D00060EA7FE080E090E00E943B02E114F104D5
:1009E00009F4A7CF0E94F600882309F4A2CF0E9441
:1009F00000009FCF6FEF73E085E090E00E946D02F2
:100A00006CEB72E080E090E00E943B0270E060E0FE
:100A1000DBCFA1E21A2EAA1BBB1BFD010DC0AA1F32
:100A2000BB1FEE1FFF1FA217B307E407F50720F057
:100A3000A21BB30BE40BF50B661F771F881F991FD2
:100A40001A9469F760957095809590959B01AC011B
:100A5000BD01CF010895EE0FFF1F0590F491E02D29
:060A60000994F894FFCF99
:100A6600000000002C018C00B9007901EA00C800E2
:020A7600DC00A2
:00000001FF
