:100000000C945E000C9486000C9486000C94860080
:100010000C9486000C9486000C9486000C94860048
:100020000C9486000C9486000C9486000C94860038
:100030000C9486000C9486000C9486000C94860028
:100040000C94B4050C9486000C9482050C945C0509
:100050000C9486000C9486000C9486000C94860008
:100060000C9486000C948600000000080002010039
:100070000003040700000000000000000000000072
:10008000250028002B0000000000240027002A0083
:10009000040404040404040402020202020203032E
:1000A0000303030301020408102040800102040836
:1000B0001020010204081020FE05F70711241FBEBE
:1000C000CFEFD8E0DEBFCDBF12E0A0E0B1E0E0E1CD
:1000D000F7E102C005900D92A032B107D9F722E0F6
:1000E000A0E2B2E001C01D92A93DB207E1F710E025
:1000F000CDE5D0E004C02197FE010E947209CC3505
:10010000D107C9F70E9436060C947B0B0C940000B3
:100110000895AF92BF92CF92DF92EF92FF920F932A
:100120001F93CF93DF936C017B018B01040F151F8D
:10013000EB015E01AE18BF08C017D10759F06991F5
:10014000D601ED91FC910190F081E02DC601099559
:10015000892B79F7C501DF91CF911F910F91FF9006
:10016000EF90DF90CF90BF90AF900895FC01538D3A
:10017000448D252F30E0842F90E0821B930B541781
:1001800010F0CF96089501970895FC01918D828D0E
:10019000981761F0A28DAE0FBF2FB11D5D968C91A7
:1001A000928D9F5F9F73928F90E008958FEF9FEFE6
:1001B00008952FB7F8948091280290912902A09178
:1001C0002A02B0912B022FBF809334029093350204
:1001D000A0933602B09337028CE292E00E94C500F1
:1001E00097FF26C02FB7F89480912802909129029A
:1001F000A0912A02B0912B022FBF4091340250915E
:1002000035026091360270913702841B950BA60B64
:10021000B70B4091300250913102609132027091DF
:10022000330284179507A607B707B0F28FEF9FEF49
:100230000895FC01918D828D981731F0828DE80F21
:10024000F11D858D90E008958FEF9FEF0895FC01DB
:10025000918D228D892F90E0805C9F4F821B9109A8
:100260008F73992708958CE292E00E94270121E084
:10027000892B09F420E0822F089580E090E0892BFB
:1002800029F00E94330181110C9400000895FC01B3
:10029000A48DA80FB92FB11DA35ABF4F2C91848DE7
:1002A00090E001968F739927848FA689B7892C9344
:1002B000A089B1898C91837080648C93938D848D97
:1002C000981306C00288F389E02D80818F7D80839A
:1002D0000895EF92FF920F931F93CF93DF93EC015A
:1002E00081E0888F9B8D8C8D98131AC0E889F989DD
:1002F000808185FF15C09FB7F894EE89FF896083E0
:10030000E889F98980818370806480839FBF81E060
:1003100090E0DF91CF911F910F91FF90EF900895A2
:10032000F62E0B8D10E00F5F1F4F0F731127E02E7D
:100330008C8D8E110CC00FB607FCFACFE889F989B5
:10034000808185FFF5CFCE010E944701F1CFEB8D73
:10035000EC0FFD2FF11DE35AFF4FF0829FB7F89489
:100360000B8FEA89FB8980818062CFCFCF93DF93A7
:10037000EC01888D8823B9F0AA89BB89E889F989BD
:100380008C9185FD03C0808186FD0DC00FB607FCF2
:10039000F7CF8C9185FFF2CF808185FFEDCFCE0125
:1003A0000E944701E9CFDF91CF91089590E0FC01D1
:1003B000E859FF4F2491FC01EC55FF4F3491FC01AB
:1003C000E057FF4FE491EE23C9F0222339F02330A8
:1003D00001F1A8F4213019F1223029F1F0E0EE0FFB
:1003E000FF1FE458FF4FA591B4918FB7F894EC919B
:1003F000611126C030953E233C938FBF089527306E
:10040000A9F02830C9F0243049F7809180008F7D11
:1004100003C0809180008F7780938000DFCF84B508
:100420008F7784BDDBCF84B58F7DFBCF8091B0000B
:100430008F778093B000D2CF8091B0008F7DF9CFBD
:100440003E2BDACF3FB7F89480912102909122029F
:10045000A0912302B091240226B5A89B05C02F3F8E
:1004600019F00196A11DB11D3FBFBA2FA92F982FDA
:100470008827BC01CD01620F711D811D911D42E0D5
:10048000660F771F881F991F4A95D1F708958F929D
:100490009F92AF92BF92CF92DF92EF92FF926B0149
:1004A0007C010E9422024B015C01C114D104E104D1
:1004B000F104B9F00E942202681979098A099B099E
:1004C000683E73408105910580F321E0C21AD1088E
:1004D000E108F10888EE880E83E0981EA11CB11C8B
:1004E000E4CFFF90EF90DF90CF90BF90AF909F90C0
:1004F0008F900895BF92CF92DF92EF92FF920F9369
:100500001F93CF93DF938B01D0E0C0E06C01990F74
:10051000EE08FF0895E0B92E61E08B2D0E94D60110
:10052000B3948BE0B812F8CFC701B6010E9447021E
:1005300085E0B82E60E08B2D0E94D601B3948BE04D
:10054000B812F8CFC701B6010E94470221960C17D6
:100550001D0701F7DF91CF911F910F91FF90EF9051
:10056000DF90CF90BF900895CF93DF93FC0101906F
:100570000020E9F73197AF01481B590BBC018CE211
:1005800092E00E948900EC0142E050E06CE171E0F1
:100590008CE292E00E9489008C0F9D1FDF91CF9129
:1005A0000895CF93DF93EC0188819981009711F032
:1005B0000E94140A198218821D821C821B821A82D0
:1005C000DF91CF910895FC0180819181009711F016
:1005D0000C94140A0895EF92FF920F931F93CF93F8
:1005E000DF930091CF021091D002FC01C081D18134
:1005F000F80181918F018823B9F0082E000C990B26
:100600000E945A0B7C018991082E000C990B0E94C4
:100610005A0BE816F90661F380E0DF91CF911F9144
:100620000F91FF90EF90089581E0F7CF2091D302D2
:100630003091D4028091CD029091CE0228173907D3
:10064000F1F48091CF029091D0026091C902709133
:10065000CA020097D1F061157105A1F4232BC1F0F6
:10066000FC01808190E008C0232B91F0FB01808188
:1006700090E091958195910921E0892B09F020E086
:10068000822F08950E946B0BF7CF6115710561F7FA
:1006900021E0F6CF0F931F93CF93DF93EC01888176
:1006A0009981009759F02A813B812617370730F04E
:1006B00081E0DF91CF911F910F9108958B016F5FC2
:1006C0007F4F0E949D0A009759F0998388831B836E
:1006D0000A832C813D81232B59F7FC011082E8CF3E
:1006E00080E0E7CFEF92FF920F931F93CF93DF93BA
:1006F000EC017B018A01BA010E944A0381110BC0FF
:10070000CE010E94D102CE01DF91CF911F910F91B6
:10071000FF90EF9008951D830C83B7018881998124
:100720000E94740BF0CF4F925F926F927F928F92E4
:100730009F92AF92BF92CF92DF92EF92FF920F9370
:100740001F93CF93DF93CDB7DEB72E970FB6F894F4
:10075000DEBF0FBECDBFADB6BEB6880F991F2DB799
:100760003EB7281B390B0FB6F8943EBF0FBE2DBF06
:100770000DB71EB70F5F1F4F6801C80ED91E780155
:1007800035E0432E512C612C712C0E944B08A301A3
:1007900092010E94D8086F5F7F4F8F4F9F4FF701E4
:1007A000619371937F01EC15FD0579F750E040E00E
:1007B0006EE171E089EC92E00E9472039E012F5F6E
:1007C0003F4F6901F801819091908F01909227022B
:1007D00080922602F1E08F16910409F07DC061E05D
:1007E00085E00E94D60168EE73E080E090E00E9410
:1007F000470260E085E00E94D60168EE73E080E089
:1008000090E00E9447021A8619861C861B861E8667
:100810001D866091C9027091CA026115710541F08F
:100820004091CD025091CE02CE0109960E947203F2
:100830004AE0B601C4010E94A308F601019000201D
:10084000E9F73197EC19FD09B9F08D849E848E0E7D
:100850009F1EB401CE0109960E944A03882309F421
:1008600080C029853A858D859E85B601820F931FAC
:100870000E94740B9E868D8669857A856115710547
:1008800009F474C04D855E8589EC92E00E94720384
:10089000CE0109960E94E3020E151F0509F092CFC2
:1008A0000FB6F894BEBE0FBEADBE2E960FB6F8942E
:1008B000DEBF0FBECDBFDF91CF911F910F91FF9093
:1008C000EF90DF90CF90BF90AF909F908F907F90F0
:1008D0006F905F904F90089522E08216910469F422
:1008E00061E086E00E94D60168EE73E080E090E06F
:1008F0000E94470260E086E07ECF33E083169104D9
:1009000069F461E087E00E94D60168EE73E080E060
:1009100090E00E94470260E087E06DCF84E0881697
:10092000910469F461E088E00E94D60168EE73E00A
:1009300080E090E00E94470260E088E05CCF95E0B4
:100940008916910409F05FCF61E089E00E94D60129
:1009500068EE73E080E090E00E94470260E089E08A
:100960004ACFCE0109960E94D10286CF89EC92E04F
:100970000E94D1028DCFFC0111821082138212825B
:1009800015821482FB0101900020E9F73197AF0135
:10099000461B570B0C9472030F931F93CF93DF9357
:1009A000CDB7DEB728970FB6F894DEBF0FBECDBF28
:1009B0008FE191E00E94B4028CE292E00E94270154
:1009C000892BD1F38CE292E00E942701892B09F454
:1009D0004FC01A8219821C821B821E821D8250E027
:1009E00040E06EE171E0CE0101960E9472030E9428
:1009F000D90097FD1BC08F8318860D811E810F5F64
:100A00001F4FB801CE0101960E944A03882379F353
:100A100029813A818D819E81BE01695F7F4F820F5E
:100A2000931F0E94740B1E830D83E1CF8091CF0230
:100A30009091D002009749F169817A816115710521
:100A400011F14091D1025091D2022D813E81421785
:100A50005307C8F00E94740B8D819E819093D4023D
:100A60008093D3021E821D82CE0101960E94E30272
:100A700028960FB6F894DEBF0FBECDBFDF91CF91A1
:100A80001F910F9108950E94140A89819A81909371
:100A9000D0028093CF028B819C819093D20280936D
:100AA000D1028D819E819093D4028093D3021A82C9
:100AB00019821C821B82D6CF1F920F920FB60F9203
:100AC00011242F933F934F935F936F937F938F9353
:100AD0009F93AF93BF93EF93FF938CE292E00E94BA
:100AE0004701FF91EF91BF91AF919F918F917F91BE
:100AF0006F915F914F913F912F910F900FBE0F908B
:100B00001F9018951F920F920FB60F9211242F93DA
:100B10008F939F93EF93FF93E0913C02F0913D02FE
:100B20008081E0914202F091430282FD1BC09081DE
:100B3000809145028F5F8F7320914602821741F0AA
:100B4000E0914502F0E0E45DFD4F958F8093450212
:100B5000FF91EF919F918F912F910F900FBE0F906A
:100B60001F9018958081F4CF1F920F920FB60F92AD
:100B700011242F933F938F939F93AF93BF938091B3
:100B8000280290912902A0912A02B0912B02309163
:100B9000200223E0230F2D3758F50196A11DB11D2A
:100BA000209320028093280290932902A0932A0286
:100BB000B0932B028091210290912202A0912302F6
:100BC000B09124020196A11DB11D80932102909342
:100BD0002202A0932302B0932402BF91AF919F9170
:100BE0008F913F912F910F900FBE0F901F901895EE
:100BF00026E8230F0296A11DB11DD2CFECE2F2E050
:100C00001382128288EE93E0A0E0B0E084839583A3
:100C1000A683B7838EE091E09183808385EC90E09A
:100C20009587848784EC90E09787868780EC90E0B6
:100C3000918B808B81EC90E0938B828B82EC90E0A7
:100C4000958B848B86EC90E0978B868B118E128E21
:100C5000138E148E6EE171E08FEC92E00E94BB0463
:100C60006EE171E089EC92E00C94BB04CF93DF93CA
:100C700000D000D000D0CDB7DEB7789484B58260C4
:100C800084BD84B5816084BD85B5826085BD85B530
:100C9000816085BD80916E00816080936E001092AE
:100CA0008100809181008260809381008091810029
:100CB00081608093810080918000816080938000BA
:100CC0008091B10084608093B1008091B000816018
:100CD0008093B00080917A00846080937A00809144
:100CE0007A00826080937A0080917A00816080939C
:100CF0007A0080917A00806880937A001092C10017
:100D0000E0913C02F0913D0282E08083E091380264
:100D1000F09139021082E0913A02F0913B028FEC9F
:100D2000808310924402E0914002F091410286E0FB
:100D30008083E0913E02F0913F0280818061808358
:100D4000E0913E02F0913F02808188608083E091D3
:100D50003E02F0913F02808180688083E0913E02F4
:100D6000F0913F0280818F7D808325E030E0F901A2
:100D7000EC55FF4F4491F901E057FF4F84918823D0
:100D800099F090E0880F991FFC01EA57FF4FA59159
:100D9000B491FC01E458FF4F859194918FB7F8947A
:100DA000EC91E42BEC938FBF2F5F3F4F2B3031053D
:100DB000F1F680E480937C0080917A0080648093D7
:100DC0007A0080917A0086FDFCCF80917800609156
:100DD0007900762F682F072E000C880B990B611570
:100DE00071058105910511F00E949A0830E0E32E0B
:100DF00030E0F32E16E0DD24D39447E0C42E55E016
:100E0000B52E84E0A82E93E0992E22E0822EE09168
:100E10002502E83008F0ADC00E2E000CFF0BED5E91
:100E2000F84F0C9472091B075B077307840795073B
:100E3000A607AD07C50787E391E00E94B40282E4EC
:100E400091E00E94B4020E94CC0461E571E0CE0101
:100E500001960E94BB048091D3029091D4022D810F
:100E60003E8100E08217930741F401E0892B29F0CD
:100E7000CE0101960E94EB02082FCE0101960E943E
:100E8000E302002369F0D092250283E591E00E94FD
:100E9000B40266E070E088EE93E00E947A0269C0D6
:100EA0001093250286E691E00E94B40265E070E0AE
:100EB0008CE291E0F2CF89E791E00E94B40283E0F6
:100EC00090E00E9493030E94CC040E9416038823A2
:100ED00029F08092250285E891E0D9CF1093250270
:100EE0008EE991E0E1CF8AEA91E00E94B40285E0C8
:100EF00090E00E9493030E94CC040E941603882372
:100F000069F390922502E7CF86EB91E00E94B4024C
:100F100087E090E00E9493030E94CC040E94160395
:100F20008823E1F2A0922502D6CF82EC91E00E94C4
:100F3000B40289E090E00E9493030E94CC040E94D6
:100F40001603882359F2B0922502C5CF8EEC91E0AA
:100F50000E94B4028BE090E0EECF8AED91E00E9417
:100F6000B40269E070E084E690E00E947A02C092E8
:100F70002502E114F10409F44ACF0E9433018823C9
:100F800009F43FCF0E9400003CCF84EE91E00E9424
:100F9000B4020E94CC0461E571E0CE0101960E948A
:100FA000BB048091D3029091D4022D813E8100E058
:100FB0008217930741F401E0892B29F0CE010196B5
:100FC0000E94EB02082FCE0101960E94E30200234B
:100FD00029F0D09225028BEF91E059CF1093250292
:100FE0008DE092E00E94B40269E070E061CF89EC8C
:100FF00092E00E94E3028FEC92E00C94E3028F9265
:101000009F92AF92BF92CF92DF92EF92FF92CF93D7
:10101000DF93EC01688179818A819B81611571057B
:101020008105910521F464E279ED8BE597E02DE1EE
:1010300033EF41E050E00E94D80849015A019B017A
:10104000AC01A7EAB1E40E94F7086B017C01ACEEA9
:10105000B4EFA50194010E940509C60ED71EE81E33
:10106000F91EF7FE06C081E0C81AD108E10880E841
:10107000F80AC882D982EA82FB82C701B6019F774B
:10108000DF91CF91FF90EF90DF90CF90BF90AF9026
:101090009F908F9008958F929F92AF92BF92CF9220
:1010A000DF92EF92FF9260910001709101018091B7
:1010B000020190910301611571058105910521F4EB
:1010C00064E279ED8BE597E02DE133EF41E050E00C
:1010D0000E94D80849015A019B01AC01A7EAB1E47A
:1010E0000E94F7086B017C01ACEEB4EFA5019401FE
:1010F0000E940509C60ED71EE81EF91EF7FE06C09F
:1011000081E0C81AD108E10880E8F80AC09200011D
:10111000D0920101E0920201F0920301C701B601F1
:101120009F77FF90EF90DF90CF90BF90AF909F9010
:101130008F900895609300017093010180930201E4
:10114000909303010895BB274A3031F4992322F488
:10115000BDE2909581959F4F0C94AF08BB27FB0192
:101160005527AA27880F991FAA1FA41710F0A41BA0
:1011700083955051B9F7A05DAA3308F0A95DA193FA
:10118000009779F7B111B1931192CB010C94C80873
:10119000DC01FC01672F71917723E1F7329704C0DE
:1011A0007C916D9370836291AE17BF07C8F3089569
:1011B000052E97FB1EF400940E94EF0857FD07D000
:1011C0000E94410907FC03D04EF40C94EF0850959F
:1011D0004095309521953F4F4F4F5F4F0895909523
:1011E0008095709561957F4F8F4F9F4F08950E9416
:1011F0006309A59F900DB49F900DA49F800D911D34
:1012000011240895B7FF0C94F7080E94F708821B79
:10121000930B08952F923F924F925F926F927F921D
:101220008F929F92AF92BF92CF92DF92EF92FF92F6
:101230000F931F93CF93DF93CDB7DEB7CA1BDB0BA2
:101240000FB6F894DEBF0FBECDBF09942A88398847
:1012500048885F846E847D848C849B84AA84B9844E
:10126000C884DF80EE80FD800C811B81AA81B9815A
:10127000CE0FD11D0FB6F894DEBF0FBECDBFED016E
:101280000895A1E21A2EAA1BBB1BFD010DC0AA1FC7
:10129000BB1FEE1FFF1FA217B307E407F50720F0DF
:1012A000A21BB30BE40BF50B661F771F881F991F5A
:1012B0001A9469F760957095809590959B01AC01A3
:1012C000BD01CF010895A29FB001B39FC001A39FAC
:1012D000700D811D1124911DB29F700D811D11246F
:1012E000911D0895EE0FFF1F0590F491E02D0994D4
:1012F0000F931F93CF93DF938230910510F482E018
:1013000090E0E091D702F091D80230E020E0B0E028
:10131000A0E0309799F42115310509F44AC0281B43
:10132000390B24303105D8F58A819B81611571050F
:1013300089F1FB0193838283FE0111C040815181B9
:101340000281138148175907E0F04817590799F4AB
:10135000109761F012960C93129713961C93329685
:10136000CF01DF91CF911F910F9108950093D70284
:101370001093D802F4CF2115310551F042175307CD
:1013800038F0A901DB019A01BD01DF01F801C1CFED
:10139000EF01F9CF9093D8028093D702CDCFFE0111
:1013A000E20FF31F819391932250310939832883EF
:1013B000D7CF2091D5023091D602232B41F4209132
:1013C0000601309107013093D6022093D502209177
:1013D0000401309105012115310541F42DB73EB7C7
:1013E0004091080150910901241B350BE091D50271
:1013F000F091D602E217F307A0F42E1B3F0B28173B
:10140000390778F0AC014E5F5F4F2417350748F07D
:101410004E0F5F1F5093D6024093D5028193919354
:101420009FCFF0E0E0E09CCFCF93DF930097E9F00F
:10143000FC01329713821282A091D702B091D80298
:10144000ED0130E020E01097A1F420813181820F7E
:10145000931F2091D5023091D6022817390709F041
:1014600061C0F093D602E093D502DF91CF91089549
:10147000EA01CE17DF07E8F54A815B819E0141153D
:101480005105B1F7E901FB83EA8349915991C40FF2
:10149000D51FEC17FD0761F4808191810296840FBE
:1014A000951FE90199838883828193819B838A8335
:1014B000F0E0E0E012968D919C9113970097B9F5BA
:1014C0002D913C911197CD010296820F931F20918F
:1014D000D5023091D6022817390739F6309751F5E1
:1014E0001092D8021092D702B093D602A093D502E0
:1014F000BCCFD383C28340815181840F951FC8170D
:10150000D90761F44E5F5F4F88819981480F591F59
:10151000518340838A819B81938382832115310586
:1015200009F0B0CFF093D802E093D7029ECFFD012F
:10153000DC01C0CF13821282D7CFB0E0A0E0E3EA93
:10154000FAE00C940C098C01009751F4CB010E9435
:1015500078098C01C801CDB7DEB7E0E10C94280909
:10156000FC01E60FF71F9C0122503109E217F30737
:1015700008F49DC0D901CD91DC911197C617D7070A
:1015800098F0C530D10530F3CE0104978617970740
:1015900008F3C61BD70B2297C193D1936D937C930D
:1015A000CF010E94140AD6CF5B01AC1ABD0A4C01D0
:1015B0008C0E9D1EA091D702B091D802512C412CC7
:1015C000F12CE12C109731F58091D5029091D60243
:1015D0008815990509F05CC04616570608F058C0F2
:1015E0008091040190910501009741F48DB79EB759
:1015F0004091080150910901841B950BE817F907E8
:1016000008F055C0F093D602E093D502F90171833A
:101610006083A0CF8D919C91119712966C90129738
:1016200013967C901397A815B90559F56C0142E003
:10163000C40ED11CCA14DB0420F1AC014A195B09A9
:10164000DA011296159780F062827382518340838B
:10165000D9016D937C93E114F10471F0D7011396D5
:10166000FC93EE93129776CF22968C0F9D1FF90173
:1016700091838083F301EFCFF093D802E093D702F8
:1016800069CF4816590608F42C017D01D3019ACF81
:10169000CB010E9478097C01009749F0AE01B801A6
:1016A0000E94620BC8010E94140A870153CF10E008
:1016B00000E050CF9111089581548A5108F4805E62
:1016C000855A0895FB01DC0102C001900D92415042
:1016D0005040D8F70895FB01DC018D9101908019ED
:1016E0000110D9F3990B0895FB01DC0101900D92D3
:1016F0000020E1F7089510E0CDE5D0E004C0FE0140
:101700000E9472092196CE35D107C9F7F894FFCF10
:10171000010000000000D902800000000000690103
:101720008900B600B6012701C50019010D0A002A7B
:1017300020496E73657261207375612072657370E4
:101740006F737461202A002A20494E4943494F2073
:101750002A00436F6D656361723F2028732F6E29E5
:101760000073004A6F676F20636F6D65C3A7616E7A
:10177000646F2E2E2E004A6F676F206EC3A36F20FA
:10178000696E69636961646F002A204E6976656CD1
:101790002031202A005061726162656E73212070D1
:1017A000726F78696D6F206E6976656C2E00457278
:1017B000726F6F6F6F6F212121002A204E6976654D
:1017C0006C2032202A002A204E6976656C20332056
:1017D0002A002A204E6976656C2034202A002A20AF
:1017E0004E6976656C2035202A0047616D65204F73
:1017F000766572006A6F676172206E6F76616D65E3
:101800006E74653F2028732F6E29004A6F676F2022
:10181000636F6D6563616E646F2E2E2E004A6F6775
:101820006F206E616F20696E69636961646F00008B
:00000001FF
